<<<<<<< HEAD
:060000000A128A11F82F1C
:1006D600831603138801051485140515080072088E
:1006E60071047004031908008030F2060800F00057
:1006F600701C812B831203130816842B8312031399
:100706000812F01C882B8816892B8812701D8D2BD9
:1007160008178E2B0813F01D922B881708008813D4
:100726000800F30083120313881073080A128A1153
:100736007A230A128A118312031308140B30F2006B
:100746006230F100F10BA52BF20BA52B00008312F2
:10075600031308100800F401F501701CB82B720889
:10076600F4070318F50A7308F50701300310F20DB4
:10077600F30DFF3E031DB92B01300310F10CF00CF5
:10078600FF3E031DC02B71087004031DB02B7508B6
:10079600F101F1077408F001F00708008312031352
:1007A600A501A21FE02BA009A109A209A00A03190D
:1007B600A10A0319A20AA501A50A2008F00021082A
:1007C600F1002208F2008E30A3002308F30025086A
:1007D600A4002408F4000A128A113725700883122F
:1007E6000313A0007108A1007208A2000800F4001B
:1007F60074080F39F1007108F2007408F039F1003D
:100806007108F3008312031388147308F10004308F
:100816000310F10CFF3E031D0B2C71080A128A11FE
:100826007A230A128A118312031308141A30F1006C
:10083600F10B1B2C000083120313081072080A1216
:100846008A117A230A128A118312031308141A30A2
:10085600F100F10B2C2C0000831203130810080082
:10086600831203132708F0002808F1002908F20074
:100876000A128A119F250A128A117208831203131B
:10088600A2007108A1007008A0000A128A11D123E3
:100896000A128A11831203132A088400200883137C
:1008A6008000840A21088000840A22088000270824
:1008B600F8002808F9002908FA002A088400000828
:1008C600F000840A0008F100840A0008F2000A1207
:1008D6008A1172230A128A117008FB007108FC0043
:1008E6007208FD000A128A11F12678088312031392
:1008F600A7007908A8007A08A900080000300A12A3
:100906008A117A230A128A113430F500F130F40084
:10091600F40B8B2CF50B8B2C902C03300A128A11BE
:1009260094230A128A110D30F500FB30F400F40B03
:100936009A2CF50B9A2C9F2C03300A128A119423B9
:100946000A128A111D30F5009130F400F40BA92C1F
:10095600F50BA92C03300A128A1194230A128A1164
:1009660002300A128A1194230A128A1102300A12DC
:100976008A1194230A128A1108300A128A119423C2
:100986000A128A1100300A128A1194230A128A1155
:100996000C300A128A1194230A128A1100300A12A4
:1009A6008A1194230A128A1106300A128A11942394
:1009B6000800F601F11FE62CF009F109F00A031907
:1009C600F10AF601F60AF31FF12CF209F309F20A0D
:1009D6000319F30A0130F4007408F606F701F8016A
:1009E600710870040319282DF501F50AF11B072D6E
:1009F60001300310F00DF10DFF3E031DFC2C0130FC
:100A0600F4007408F507F92C01300310F70DF80D02
:100A1600FF3E031D082D71087302031D142D700877
:100A26007202031C1D2D7008F2027108031CF303E9
:100A3600F302771401300310F10CF00CFF3E031D96
:100A46001E2D0130F502031D072D76080319302DE2
:100A5600F709F809F70A0319F80A7808F101F10706
:100A66007708F001F0070800730803193F2D720894
:100A760071047004031D522D0030F0000030F100A7
:100A86000030F20008000130F5007508F307013068
:100A96000310F20CF10CF00CFF3E031D4B2DFE3043
:100AA600720503196D2D462D0130F5007508F30703
:100AB6000130F007003003180130F1070030031849
:100AC6000130F20701300310F20CF10CF00CFF3E7E
:100AD600031D662DFF30720503197C2D572D01303D
:100AE600F30201300310F00DF10DF20DFF3E031D70
:100AF600752DF11F722D7318862DFF30F0057F308E
:100B0600F105FF30F2050310F30C7308F500F6014A
:100B1600F70110300310F50DF60DF70DFF3E031D1E
:100B26008D2D7508F0047608F1047708F204740830
:100B360003190800F21708007008F4007108F500A0
:100B46007208F6000310750D760DF7007708FD00A4
:100B5600FD08031DB72D0030F3000030F200003011
:100B6600F1000030F00008007008F4007108F5008C
:100B76007208F60017300310F60CF50CF40CFF3E65
:100B8600031DBE2D7408F7007708F800F117FF3033
:100B9600F005FF30F1050030F2057008F900710824
:100BA600FA007208FB00FC018E30FD02FD1FF92DD4
:100BB6007D08803A8F3E0318E92D0030F30000309F
:100BC600F2000030F1000030F000080001300310A0
:100BD600FC0CFB0CFA0CF90CFF3E031DEA2D013050
:100BE600F4007408FD070319142EE92D18307D0250
:100BF600031C112E0030F3000030F2000030F1002B
:100C06000030F00008000130F4000310F90DFA0D71
:100C1600FB0DFC0DF40B082E0130FD02FD08031D33
:100C2600062E78080319222EF909FA09FB09FC0990
:100C3600F90A0319FA0A0319FB0A0319FC0A7C08C4
:100C4600F3007B08F2007A08F1007908F00008004A
:100C56000A128A116B230A128A110A128A11812436
:100C66000A128A117B3083120313B1006030B2007E
:100C76004230B3003930AB002B08AA003108A70078
:100C86003208A8003308A9000A128A1133240A126E
:100C96008A11831203132708B4002808B50029080F
:100CA600B6003408F0003508F1003608F2000A12E2
:100CB6008A119F250A128A11710883120313B00143
:100CC600B0077008AF01AF070130BB000030BC00B1
:100CD6003C08803AFF0080307F02031D742E0A30E4
:100CE6003B020318E82E831203133C08F101F107B7
:100CF6003B08F001F0070A30F2000030F3000A1258
:100D06008A11AE230A128A11710883120313B801DD
:100D1600B8077008B701B7073808F101F1073708B7
:100D2600F001F0073A08F301F3073908F201F20778
:100D36000A128A11DC240A128A117108803AFF000D
:100D460080307F02031DA92E02307002031CD52EAF
:100D5600831203133C08AE01AE073B08AD01AD0795
:100D66003C08F101F1073B08F001F0073808F301F0
:100D7600F3073708F201F2070A128A11AE230A12A4
:100D86008A11700983120313AB007109AC00AB0A18
:100D96000319AC0A39082B07B9003A0803183A0AAE
:100DA6002C07BA00013083120313BB070318BC0AD1
:100DB6000030BC073C08803AFF0080307F02031DEC
:100DC600E62E0A303B02031C762E831203133908E3
:100DD6000A128A11FA230A128A1100287808831245
:100DE6000313A0007908A1007A08A2000310210DC0
:100DF600220DA3002308A6007B08A0007C08A10002
:100E06007D08A2000310210D220DA3002308A500D2
:100E1600260803191A2F250826020318212F260350
:100E2600FF3A2507A00019302002031C212F7B085A
:100E3600F8007C08F9007D08FA0008002508031967
:100E46000800260825020318302F2503FF3A260737
:100E5600A00019302002031808000630A000200860
:100E6600A400FA1BA417FD1B2417F917FF30F80579
:100E7600FF30F9050030FA05FC17FF30FB05FF309F
:100E8600FC050030FD05250826020318702F0130E9
:100E96000310FB0DFC0DFD0DFF3E031D4B2F013016
:100EA600A5022508260603196B2F0130A402240883
:100EB600073903196B2F4A2F01300310FA0CF90C6E
:100EC600F80CFF3E031D602F0130A0002008A60786
:100ED600260825060319992F5F2F260825020318D1
:100EE600992F01300310F80DF90DFA0DFF3E031D81
:100EF600752F0130A602250826060319952F013005
:100F0600A402240807390319952F742F0130031002
:100F1600FD0CFC0CFB0CFF3E031D8A2F0130A000CC
:100F26002008A50726082506031D892FA41FAB2F19
:100F3600FF30F806FF30F906FF30FA060130F807F1
:100F4600003003180130F907003003180130FA07A2
:100F5600241FBD2FFF30FB06FF30FC06FF30FD06C9
:100F66000130FB07003003180130FC07003003187E
:100F76000130FD07A4017808FB077908031103185F
:100F8600790A031DFC077A08031103187A0A031D60
:100F9600FD07FD1FE02FFF30FB06FF30FC06FF308C
:100FA600FD060130FB07003003180130FC07003056
:100FB60003180130FD07A401A40A7B08F0007C0891
:100FC600F1007D08F2002608A0002008F30024089E
:100FD600A1002108F4000A128A1137257008F800CA
:100FE6007108F9007208FA000800BD01BE01BF01D0
:0A0FF600C00183010A128A112B2E9C
=======
:100000000A128A11F82F00308A000408840A820735
:100010000034503472346F3479346534633474345A
:100020006F34203441346E347434693472346F3434
:1000300062346F3400346D34693464346934653447
:100040006E3464346F3420346C34693474347234F4
:100050006F3473343A340034643465342034673494
:10006000613473346F346C3469346E346534723493
:1000700061347334003448346534633468346F3425
:10008000203470346F347234003452342E342034BF
:0C009000433465346C346934733400343C
:100BA8008316031388010514851405150800003001
:100BB8000A128A1100260A128A1101300A128A11B1
:100BC80000260800F000701CED2D83120313081690
:100BD800F02D831203130812F01CF42D8816F52D3E
:100BE8008812701DF92D0817FA2D0813F01DFE2D17
:100BF8008817080088130800F3008312031388106D
:100C080073080A128A11E6250A128A11831203133D
:100C180008140B30F2006230F100F10B112EF20BC8
:100C2800112E00008312031308100800F700F501C5
:100C3800F6017508770784000A128A1103200A1240
:100C48008A110038031908007508770784000A120A
:100C58008A1103200A128A110A128A113C260A12E2
:100C68008A110130F5070318F60A0030F6071D2E21
:100C7800F40074080F39F1007108F2007408F039B3
:100C8800F1007108F3008312031388147308F1004C
:100C980004300310F10CFF3E031D4D2E71080A129B
:100CA8008A11E6250A128A118312031308141A30CE
:100CB800F100F10B5D2E0000831203130810720877
:100CC8000A128A11E6250A128A11831203130814DC
:100CD8001A30F100F10B6E2E000083120313081076
:100CE8000800F7007708013A031DA12E74087F3E1B
:100CF800FC00003003180130FD007D08F6007C0878
:100D0800F5000430FF00760DF60CF50CFF0B872E6E
:100D18007508F8007608F9000F307C05FA000030F5
:100D28007D05FB0078080A128A1100260A128A112A
:100D38007A080A128A11002608007708023A031D69
:100D480008007408BF3EFC00003003180130FD00A5
:100D58007D08F6007C08F5000430FF00760DF60CDF
:100D6800F50CFF0BB22E7508F8007608F9000F3065
:100D78007C05FA0000307D05FB0078080A128A110C
:100D880000260A128A117A080A128A110026080017
:100D980000300A128A11E6250A128A113430F50049
:100DA800F130F400F40BD62EF50BD62EDB2E0330E3
:100DB8000A128A1100260A128A110D30F500FB303A
:100DC800F400F40BE52EF50BE52EEA2E03300A129B
:100DD8008A1100260A128A111D30F5009130F4009C
:100DE800F40BF42EF50BF42E03300A128A110026A8
:100DF8000A128A1102300A128A1100260A128A116E
:100E080002300A128A1100260A128A1108300A12C0
:100E18008A1100260A128A1100300A128A11002645
:100E28000A128A110C300A128A1100260A128A1133
:100E380000300A128A1100260A128A1106300A1294
:100E48008A11002608000A128A11D4250A128A116A
:100E58000A128A11CC260A128A110A128A11DB2573
:100E68000A128A11F401F40A01300A128A1175264D
:100E78000A128A1101300A128A111A260A128A11D4
:100E8800F401F40A02300A128A1175260A128A112C
:100E980024300A128A111A260A128A110B30831278
:100EA8000313A2002630A1006630A000A00B5A2F21
:100EB800A10B5A2FA20B5A2F612F0A128A11DB2578
:100EC8000A128A1183120313A501A6012608803A83
:100ED800FF0080307F02031D732F0B30250203189B
:100EE800C22FF401F40A01300A128A1175260A1277
:100EF8008A1113300A128A111A260A128A11F40169
:100F0800F40A02300A128A1175260A128A1183120B
:100F180003132508303EA30026080318013E003EAF
:100F2800A40023080A128A113C260A128A110B30DF
:100F380083120313A2002630A1006630A000A00B84
:100F4800A32FA10BA32FA20BA32FAA2F0A128A113A
:100F5800DB250A128A11013083120313A50703182F
:100F6800A60A0030A6072608803AFF0080307F02D4
:100F7800031DC02F0B302502031C752F0A128A117E
:100F8800DB250A128A11F401F40A01300A128A11C7
:100F980075260A128A1133300A128A111A260A1281
:100FA8008A11F401F40A02300A128A1175260A120B
:100FB8008A113D300A128A111A260A128A110B3038
:100FC80083120313A2002630A1006630A000A00BF4
:100FD800EB2FA10BEB2FA20BEB2FF22F0A128A118A
:100FE800DB250A128A11312FA701A801A901AA013C
:080FF80083010A128A11272F60
>>>>>>> origin/master
:02400E00FAFFB7
:00000001FF
